{
  "_format": "hh-sol-artifact-1",
  "contractName": "WavePortal",
  "sourceName": "contracts/WavePortal.sol",
  "abi": [
    {
      "inputs": [],
      "stateMutability": "nonpayable",
      "type": "constructor"
    },
    {
      "anonymous": false,
      "inputs": [
        {
          "indexed": true,
          "internalType": "address",
          "name": "from",
          "type": "address"
        },
        {
          "indexed": false,
          "internalType": "uint256",
          "name": "timestamp",
          "type": "uint256"
        },
        {
          "indexed": false,
          "internalType": "string",
          "name": "message",
          "type": "string"
        }
      ],
      "name": "NewWave",
      "type": "event"
    },
    {
      "inputs": [],
      "name": "getAllWaves",
      "outputs": [
        {
          "components": [
            {
              "internalType": "address",
              "name": "waver",
              "type": "address"
            },
            {
              "internalType": "string",
              "name": "message",
              "type": "string"
            },
            {
              "internalType": "uint256",
              "name": "timestamp",
              "type": "uint256"
            }
          ],
          "internalType": "struct Wave[]",
          "name": "",
          "type": "tuple[]"
        }
      ],
      "stateMutability": "view",
      "type": "function"
    },
    {
      "inputs": [],
      "name": "getTotalWaves",
      "outputs": [
        {
          "internalType": "uint256",
          "name": "",
          "type": "uint256"
        }
      ],
      "stateMutability": "view",
      "type": "function"
    },
    {
      "inputs": [
        {
          "internalType": "address",
          "name": "addr",
          "type": "address"
        }
      ],
      "name": "getWaver",
      "outputs": [
        {
          "components": [
            {
              "internalType": "address",
              "name": "addr",
              "type": "address"
            },
            {
              "internalType": "uint256",
              "name": "count",
              "type": "uint256"
            }
          ],
          "internalType": "struct Guest",
          "name": "",
          "type": "tuple"
        }
      ],
      "stateMutability": "view",
      "type": "function"
    },
    {
      "inputs": [],
      "name": "getWavers",
      "outputs": [],
      "stateMutability": "view",
      "type": "function"
    },
    {
      "inputs": [
        {
          "internalType": "string",
          "name": "_message",
          "type": "string"
        }
      ],
      "name": "wave",
      "outputs": [],
      "stateMutability": "nonpayable",
      "type": "function"
    }
  ],
  "bytecode": "0x60806040523480156200001157600080fd5b50620000416040518060600160405280602d8152602001620017b0602d91396200004760201b620008a41760201c565b620001d1565b620000e7816040516024016200005e9190620001ad565b6040516020818303038152906040527f41304fac000000000000000000000000000000000000000000000000000000007bffffffffffffffffffffffffffffffffffffffffffffffffffffffff19166020820180517bffffffffffffffffffffffffffffffffffffffffffffffffffffffff8381831617835250505050620000ea60201b60201c565b50565b60008151905060006a636f6e736f6c652e6c6f679050602083016000808483855afa5050505050565b600081519050919050565b600082825260208201905092915050565b60005b838110156200014f57808201518184015260208101905062000132565b60008484015250505050565b6000601f19601f8301169050919050565b6000620001798262000113565b6200018581856200011e565b9350620001978185602086016200012f565b620001a2816200015b565b840191505092915050565b60006020820190508181036000830152620001c981846200016c565b905092915050565b6115cf80620001e16000396000f3fe608060405234801561001057600080fd5b50600436106100575760003560e01c8063449d46c01461005c5780635218b94814610078578063635f29f8146100a85780639a2cdc08146100b2578063bd43a908146100d0575b600080fd5b61007660048036038101906100719190610d66565b6100ee565b005b610092600480360381019061008d9190610e0d565b610422565b60405161009f9190610e91565b60405180910390f35b6100b06105d2565b005b6100ba610708565b6040516100c79190610ebb565b60405180910390f35b6100d8610753565b6040516100e59190611067565b60405180910390f35b600160008082825461010091906110b8565b925050819055506000600360003373ffffffffffffffffffffffffffffffffffffffff1673ffffffffffffffffffffffffffffffffffffffff16815260200190815260200160002060010154036101bf573360046000600154815260200190815260200160002060006101000a81548173ffffffffffffffffffffffffffffffffffffffff021916908373ffffffffffffffffffffffffffffffffffffffff16021790555060018060008282546101b791906110b8565b925050819055505b600260405180606001604052803373ffffffffffffffffffffffffffffffffffffffff16815260200183815260200142815250908060018154018082558091505060019003906000526020600020906003020160009091909190915060008201518160000160006101000a81548173ffffffffffffffffffffffffffffffffffffffff021916908373ffffffffffffffffffffffffffffffffffffffff160217905550602082015181600101908161027791906112f8565b5060408201518160020155505060405180604001604052803373ffffffffffffffffffffffffffffffffffffffff1681526020016001600360003373ffffffffffffffffffffffffffffffffffffffff1673ffffffffffffffffffffffffffffffffffffffff168152602001908152602001600020600101546102fa91906110b8565b815250600360003373ffffffffffffffffffffffffffffffffffffffff1673ffffffffffffffffffffffffffffffffffffffff16815260200190815260200160002060008201518160000160006101000a81548173ffffffffffffffffffffffffffffffffffffffff021916908373ffffffffffffffffffffffffffffffffffffffff160217905550602082015181600101559050503373ffffffffffffffffffffffffffffffffffffffff167f5f7e16dc676677766a70e9c5628aa6c54ddb8b6e5188e2ae1e1f17f1ffbea71642836040516103d8929190611414565b60405180910390a261041f6040518060400160405280600d81526020017f25732068617320776176656421000000000000000000000000000000000000008152503361093d565b50565b61042a610bdc565b6000600360008473ffffffffffffffffffffffffffffffffffffffff1673ffffffffffffffffffffffffffffffffffffffff1681526020019081526020016000206040518060400160405290816000820160009054906101000a900473ffffffffffffffffffffffffffffffffffffffff1673ffffffffffffffffffffffffffffffffffffffff1673ffffffffffffffffffffffffffffffffffffffff16815260200160018201548152505090506105206040518060400160405280601881526020017f57617665722025732c2077617665642025732074696d65730000000000000000815250826000015183602001516109d9565b600360008473ffffffffffffffffffffffffffffffffffffffff1673ffffffffffffffffffffffffffffffffffffffff1681526020019081526020016000206040518060400160405290816000820160009054906101000a900473ffffffffffffffffffffffffffffffffffffffff1673ffffffffffffffffffffffffffffffffffffffff1673ffffffffffffffffffffffffffffffffffffffff168152602001600182015481525050915050919050565b6106106040518060400160405280601b81526020017f54686520666f6c6c6f77696e672070656f706c652077617665642100000000008152506108a4565b60005b600154811015610705576106f26040518060400160405280600d81526020017f2573202e2025732077617665640000000000000000000000000000000000000081525082600360006004600087815260200190815260200160002060009054906101000a900473ffffffffffffffffffffffffffffffffffffffff1673ffffffffffffffffffffffffffffffffffffffff1673ffffffffffffffffffffffffffffffffffffffff16815260200190815260200160002060000160009054906101000a900473ffffffffffffffffffffffffffffffffffffffff16610a78565b80806106fd90611444565b915050610613565b50565b600061074b6040518060400160405280601781526020017f5765206861766520256420746f74616c20776176657321000000000000000000815250600054610b17565b600054905090565b60606002805480602002602001604051908101604052809291908181526020016000905b8282101561089b57838290600052602060002090600302016040518060600160405290816000820160009054906101000a900473ffffffffffffffffffffffffffffffffffffffff1673ffffffffffffffffffffffffffffffffffffffff1673ffffffffffffffffffffffffffffffffffffffff1681526020016001820180546108009061111b565b80601f016020809104026020016040519081016040528092919081815260200182805461082c9061111b565b80156108795780601f1061084e57610100808354040283529160200191610879565b820191906000526020600020905b81548152906001019060200180831161085c57829003601f168201915b5050505050815260200160028201548152505081526020019060010190610777565b50505050905090565b61093a816040516024016108b8919061148c565b6040516020818303038152906040527f41304fac000000000000000000000000000000000000000000000000000000007bffffffffffffffffffffffffffffffffffffffffffffffffffffffff19166020820180517bffffffffffffffffffffffffffffffffffffffffffffffffffffffff8381831617835250505050610bb3565b50565b6109d582826040516024016109539291906114bd565b6040516020818303038152906040527f319af333000000000000000000000000000000000000000000000000000000007bffffffffffffffffffffffffffffffffffffffffffffffffffffffff19166020820180517bffffffffffffffffffffffffffffffffffffffffffffffffffffffff8381831617835250505050610bb3565b5050565b610a738383836040516024016109f1939291906114ed565b6040516020818303038152906040527f0d26b925000000000000000000000000000000000000000000000000000000007bffffffffffffffffffffffffffffffffffffffffffffffffffffffff19166020820180517bffffffffffffffffffffffffffffffffffffffffffffffffffffffff8381831617835250505050610bb3565b505050565b610b12838383604051602401610a909392919061152b565b6040516020818303038152906040527f1c7ec448000000000000000000000000000000000000000000000000000000007bffffffffffffffffffffffffffffffffffffffffffffffffffffffff19166020820180517bffffffffffffffffffffffffffffffffffffffffffffffffffffffff8381831617835250505050610bb3565b505050565b610baf8282604051602401610b2d929190611569565b6040516020818303038152906040527fb60e72cc000000000000000000000000000000000000000000000000000000007bffffffffffffffffffffffffffffffffffffffffffffffffffffffff19166020820180517bffffffffffffffffffffffffffffffffffffffffffffffffffffffff8381831617835250505050610bb3565b5050565b60008151905060006a636f6e736f6c652e6c6f679050602083016000808483855afa5050505050565b6040518060400160405280600073ffffffffffffffffffffffffffffffffffffffff168152602001600081525090565b6000604051905090565b600080fd5b600080fd5b600080fd5b600080fd5b6000601f19601f8301169050919050565b7f4e487b7100000000000000000000000000000000000000000000000000000000600052604160045260246000fd5b610c7382610c2a565b810181811067ffffffffffffffff82111715610c9257610c91610c3b565b5b80604052505050565b6000610ca5610c0c565b9050610cb18282610c6a565b919050565b600067ffffffffffffffff821115610cd157610cd0610c3b565b5b610cda82610c2a565b9050602081019050919050565b82818337600083830152505050565b6000610d09610d0484610cb6565b610c9b565b905082815260208101848484011115610d2557610d24610c25565b5b610d30848285610ce7565b509392505050565b600082601f830112610d4d57610d4c610c20565b5b8135610d5d848260208601610cf6565b91505092915050565b600060208284031215610d7c57610d7b610c16565b5b600082013567ffffffffffffffff811115610d9a57610d99610c1b565b5b610da684828501610d38565b91505092915050565b600073ffffffffffffffffffffffffffffffffffffffff82169050919050565b6000610dda82610daf565b9050919050565b610dea81610dcf565b8114610df557600080fd5b50565b600081359050610e0781610de1565b92915050565b600060208284031215610e2357610e22610c16565b5b6000610e3184828501610df8565b91505092915050565b610e4381610dcf565b82525050565b6000819050919050565b610e5c81610e49565b82525050565b604082016000820151610e786000850182610e3a565b506020820151610e8b6020850182610e53565b50505050565b6000604082019050610ea66000830184610e62565b92915050565b610eb581610e49565b82525050565b6000602082019050610ed06000830184610eac565b92915050565b600081519050919050565b600082825260208201905092915050565b6000819050602082019050919050565b600081519050919050565b600082825260208201905092915050565b60005b83811015610f3c578082015181840152602081019050610f21565b60008484015250505050565b6000610f5382610f02565b610f5d8185610f0d565b9350610f6d818560208601610f1e565b610f7681610c2a565b840191505092915050565b6000606083016000830151610f996000860182610e3a565b5060208301518482036020860152610fb18282610f48565b9150506040830151610fc66040860182610e53565b508091505092915050565b6000610fdd8383610f81565b905092915050565b6000602082019050919050565b6000610ffd82610ed6565b6110078185610ee1565b93508360208202850161101985610ef2565b8060005b8581101561105557848403895281516110368582610fd1565b945061104183610fe5565b925060208a0199505060018101905061101d565b50829750879550505050505092915050565b600060208201905081810360008301526110818184610ff2565b905092915050565b7f4e487b7100000000000000000000000000000000000000000000000000000000600052601160045260246000fd5b60006110c382610e49565b91506110ce83610e49565b92508282019050808211156110e6576110e5611089565b5b92915050565b7f4e487b7100000000000000000000000000000000000000000000000000000000600052602260045260246000fd5b6000600282049050600182168061113357607f821691505b602082108103611146576111456110ec565b5b50919050565b60008190508160005260206000209050919050565b60006020601f8301049050919050565b600082821b905092915050565b6000600883026111ae7fffffffffffffffffffffffffffffffffffffffffffffffffffffffffffffffff82611171565b6111b88683611171565b95508019841693508086168417925050509392505050565b6000819050919050565b60006111f56111f06111eb84610e49565b6111d0565b610e49565b9050919050565b6000819050919050565b61120f836111da565b61122361121b826111fc565b84845461117e565b825550505050565b600090565b61123861122b565b611243818484611206565b505050565b5b818110156112675761125c600082611230565b600181019050611249565b5050565b601f8211156112ac5761127d8161114c565b61128684611161565b81016020851015611295578190505b6112a96112a185611161565b830182611248565b50505b505050565b600082821c905092915050565b60006112cf600019846008026112b1565b1980831691505092915050565b60006112e883836112be565b9150826002028217905092915050565b61130182610f02565b67ffffffffffffffff81111561131a57611319610c3b565b5b611324825461111b565b61132f82828561126b565b600060209050601f8311600181146113625760008415611350578287015190505b61135a85826112dc565b8655506113c2565b601f1984166113708661114c565b60005b8281101561139857848901518255600182019150602085019450602081019050611373565b868310156113b557848901516113b1601f8916826112be565b8355505b6001600288020188555050505b505050505050565b600082825260208201905092915050565b60006113e682610f02565b6113f081856113ca565b9350611400818560208601610f1e565b61140981610c2a565b840191505092915050565b60006040820190506114296000830185610eac565b818103602083015261143b81846113db565b90509392505050565b600061144f82610e49565b91507fffffffffffffffffffffffffffffffffffffffffffffffffffffffffffffffff820361148157611480611089565b5b600182019050919050565b600060208201905081810360008301526114a681846113db565b905092915050565b6114b781610dcf565b82525050565b600060408201905081810360008301526114d781856113db565b90506114e660208301846114ae565b9392505050565b6000606082019050818103600083015261150781866113db565b905061151660208301856114ae565b6115236040830184610eac565b949350505050565b6000606082019050818103600083015261154581866113db565b90506115546020830185610eac565b61156160408301846114ae565b949350505050565b6000604082019050818103600083015261158381856113db565b90506115926020830184610eac565b939250505056fea2646970667358221220c524d18b9fd6d932a383a0103d5ae343ac79da60b51cc7df0cca04cc6a53490d64736f6c63430008110033517565206d6972617320626f626f3f20517565206d6972617320626f62613f20416e646170616c6c61626f626f",
  "linkReferences": {},
  "deployedLinkReferences": {}
}