{
  "_format": "hh-sol-artifact-1",
  "contractName": "WavePortal",
  "sourceName": "contracts/WavePortal.sol",
  "abi": [
    {
      "inputs": [],
      "stateMutability": "nonpayable",
      "type": "constructor"
    },
    {
      "inputs": [],
      "name": "getTotalWaves",
      "outputs": [
        {
          "internalType": "uint256",
          "name": "",
          "type": "uint256"
        }
      ],
      "stateMutability": "view",
      "type": "function"
    },
    {
      "inputs": [
        {
          "internalType": "address",
          "name": "addr",
          "type": "address"
        }
      ],
      "name": "getWaver",
      "outputs": [
        {
          "components": [
            {
              "internalType": "address",
              "name": "addr",
              "type": "address"
            },
            {
              "internalType": "uint256",
              "name": "count",
              "type": "uint256"
            }
          ],
          "internalType": "struct Guest",
          "name": "",
          "type": "tuple"
        }
      ],
      "stateMutability": "view",
      "type": "function"
    },
    {
      "inputs": [],
      "name": "getWavers",
      "outputs": [],
      "stateMutability": "view",
      "type": "function"
    },
    {
      "inputs": [],
      "name": "wave",
      "outputs": [],
      "stateMutability": "nonpayable",
      "type": "function"
    }
  ],
  "bytecode": "0x60806040523480156200001157600080fd5b50620000416040518060600160405280602d815260200162000ef5602d91396200004760201b620006021760201c565b620001d1565b620000e7816040516024016200005e9190620001ad565b6040516020818303038152906040527f41304fac000000000000000000000000000000000000000000000000000000007bffffffffffffffffffffffffffffffffffffffffffffffffffffffff19166020820180517bffffffffffffffffffffffffffffffffffffffffffffffffffffffff8381831617835250505050620000ea60201b60201c565b50565b60008151905060006a636f6e736f6c652e6c6f679050602083016000808483855afa5050505050565b600081519050919050565b600082825260208201905092915050565b60005b838110156200014f57808201518184015260208101905062000132565b60008484015250505050565b6000601f19601f8301169050919050565b6000620001798262000113565b6200018581856200011e565b9350620001978185602086016200012f565b620001a2816200015b565b840191505092915050565b60006020820190508181036000830152620001c981846200016c565b905092915050565b610d1480620001e16000396000f3fe608060405234801561001057600080fd5b506004361061004c5760003560e01c80635218b94814610051578063635f29f8146100815780636fe15b441461008b5780639a2cdc0814610095575b600080fd5b61006b600480360381019061006691906109cd565b6100b3565b6040516100789190610a51565b60405180910390f35b610089610263565b005b610093610399565b005b61009d6105b7565b6040516100aa9190610a7b565b60405180910390f35b6100bb61093a565b6000600260008473ffffffffffffffffffffffffffffffffffffffff1673ffffffffffffffffffffffffffffffffffffffff1681526020019081526020016000206040518060400160405290816000820160009054906101000a900473ffffffffffffffffffffffffffffffffffffffff1673ffffffffffffffffffffffffffffffffffffffff1673ffffffffffffffffffffffffffffffffffffffff16815260200160018201548152505090506101b16040518060400160405280601881526020017f57617665722025732c2077617665642025732074696d657300000000000000008152508260000151836020015161069b565b600260008473ffffffffffffffffffffffffffffffffffffffff1673ffffffffffffffffffffffffffffffffffffffff1681526020019081526020016000206040518060400160405290816000820160009054906101000a900473ffffffffffffffffffffffffffffffffffffffff1673ffffffffffffffffffffffffffffffffffffffff1673ffffffffffffffffffffffffffffffffffffffff168152602001600182015481525050915050919050565b6102a16040518060400160405280601b81526020017f54686520666f6c6c6f77696e672070656f706c65207761766564210000000000815250610602565b60005b600154811015610396576103836040518060400160405280600d81526020017f2573202e2025732077617665640000000000000000000000000000000000000081525082600260006003600087815260200190815260200160002060009054906101000a900473ffffffffffffffffffffffffffffffffffffffff1673ffffffffffffffffffffffffffffffffffffffff1673ffffffffffffffffffffffffffffffffffffffff16815260200190815260200160002060000160009054906101000a900473ffffffffffffffffffffffffffffffffffffffff1661073a565b808061038e90610ac5565b9150506102a4565b50565b60016000808282546103ab9190610b0d565b925050819055506000600260003373ffffffffffffffffffffffffffffffffffffffff1673ffffffffffffffffffffffffffffffffffffffff168152602001908152602001600020600101540361046a573360036000600154815260200190815260200160002060006101000a81548173ffffffffffffffffffffffffffffffffffffffff021916908373ffffffffffffffffffffffffffffffffffffffff16021790555060018060008282546104629190610b0d565b925050819055505b60405180604001604052803373ffffffffffffffffffffffffffffffffffffffff1681526020016001600260003373ffffffffffffffffffffffffffffffffffffffff1673ffffffffffffffffffffffffffffffffffffffff168152602001908152602001600020600101546104e09190610b0d565b815250600260003373ffffffffffffffffffffffffffffffffffffffff1673ffffffffffffffffffffffffffffffffffffffff16815260200190815260200160002060008201518160000160006101000a81548173ffffffffffffffffffffffffffffffffffffffff021916908373ffffffffffffffffffffffffffffffffffffffff160217905550602082015181600101559050506105b56040518060400160405280600d81526020017f2573206861732077617665642100000000000000000000000000000000000000815250336107d9565b565b60006105fa6040518060400160405280601781526020017f5765206861766520256420746f74616c20776176657321000000000000000000815250600054610875565b600054905090565b610698816040516024016106169190610bd1565b6040516020818303038152906040527f41304fac000000000000000000000000000000000000000000000000000000007bffffffffffffffffffffffffffffffffffffffffffffffffffffffff19166020820180517bffffffffffffffffffffffffffffffffffffffffffffffffffffffff8381831617835250505050610911565b50565b6107358383836040516024016106b393929190610c02565b6040516020818303038152906040527f0d26b925000000000000000000000000000000000000000000000000000000007bffffffffffffffffffffffffffffffffffffffffffffffffffffffff19166020820180517bffffffffffffffffffffffffffffffffffffffffffffffffffffffff8381831617835250505050610911565b505050565b6107d483838360405160240161075293929190610c40565b6040516020818303038152906040527f1c7ec448000000000000000000000000000000000000000000000000000000007bffffffffffffffffffffffffffffffffffffffffffffffffffffffff19166020820180517bffffffffffffffffffffffffffffffffffffffffffffffffffffffff8381831617835250505050610911565b505050565b61087182826040516024016107ef929190610c7e565b6040516020818303038152906040527f319af333000000000000000000000000000000000000000000000000000000007bffffffffffffffffffffffffffffffffffffffffffffffffffffffff19166020820180517bffffffffffffffffffffffffffffffffffffffffffffffffffffffff8381831617835250505050610911565b5050565b61090d828260405160240161088b929190610cae565b6040516020818303038152906040527fb60e72cc000000000000000000000000000000000000000000000000000000007bffffffffffffffffffffffffffffffffffffffffffffffffffffffff19166020820180517bffffffffffffffffffffffffffffffffffffffffffffffffffffffff8381831617835250505050610911565b5050565b60008151905060006a636f6e736f6c652e6c6f679050602083016000808483855afa5050505050565b6040518060400160405280600073ffffffffffffffffffffffffffffffffffffffff168152602001600081525090565b600080fd5b600073ffffffffffffffffffffffffffffffffffffffff82169050919050565b600061099a8261096f565b9050919050565b6109aa8161098f565b81146109b557600080fd5b50565b6000813590506109c7816109a1565b92915050565b6000602082840312156109e3576109e261096a565b5b60006109f1848285016109b8565b91505092915050565b610a038161098f565b82525050565b6000819050919050565b610a1c81610a09565b82525050565b604082016000820151610a3860008501826109fa565b506020820151610a4b6020850182610a13565b50505050565b6000604082019050610a666000830184610a22565b92915050565b610a7581610a09565b82525050565b6000602082019050610a906000830184610a6c565b92915050565b7f4e487b7100000000000000000000000000000000000000000000000000000000600052601160045260246000fd5b6000610ad082610a09565b91507fffffffffffffffffffffffffffffffffffffffffffffffffffffffffffffffff8203610b0257610b01610a96565b5b600182019050919050565b6000610b1882610a09565b9150610b2383610a09565b9250828201905080821115610b3b57610b3a610a96565b5b92915050565b600081519050919050565b600082825260208201905092915050565b60005b83811015610b7b578082015181840152602081019050610b60565b60008484015250505050565b6000601f19601f8301169050919050565b6000610ba382610b41565b610bad8185610b4c565b9350610bbd818560208601610b5d565b610bc681610b87565b840191505092915050565b60006020820190508181036000830152610beb8184610b98565b905092915050565b610bfc8161098f565b82525050565b60006060820190508181036000830152610c1c8186610b98565b9050610c2b6020830185610bf3565b610c386040830184610a6c565b949350505050565b60006060820190508181036000830152610c5a8186610b98565b9050610c696020830185610a6c565b610c766040830184610bf3565b949350505050565b60006040820190508181036000830152610c988185610b98565b9050610ca76020830184610bf3565b9392505050565b60006040820190508181036000830152610cc88185610b98565b9050610cd76020830184610a6c565b939250505056fea2646970667358221220f9a79f6e270f0982d6d5dcf2e4c17486b0440dd1f61f9390f534395600807a7b64736f6c63430008110033517565206d6972617320626f626f3f20517565206d6972617320626f62613f20416e646170616c6c61626f626f",
  "linkReferences": {},
  "deployedLinkReferences": {}
}