{
  "_format": "hh-sol-artifact-1",
  "contractName": "WavePortal",
  "sourceName": "contracts/WavePortal.sol",
  "abi": [
    {
      "inputs": [],
      "stateMutability": "payable",
      "type": "constructor"
    },
    {
      "anonymous": false,
      "inputs": [
        {
          "indexed": true,
          "internalType": "address",
          "name": "from",
          "type": "address"
        },
        {
          "indexed": false,
          "internalType": "uint256",
          "name": "timestamp",
          "type": "uint256"
        },
        {
          "indexed": false,
          "internalType": "string",
          "name": "message",
          "type": "string"
        }
      ],
      "name": "NewWave",
      "type": "event"
    },
    {
      "inputs": [],
      "name": "getAllWaves",
      "outputs": [
        {
          "components": [
            {
              "internalType": "address",
              "name": "waver",
              "type": "address"
            },
            {
              "internalType": "string",
              "name": "message",
              "type": "string"
            },
            {
              "internalType": "uint256",
              "name": "timestamp",
              "type": "uint256"
            }
          ],
          "internalType": "struct Wave[]",
          "name": "",
          "type": "tuple[]"
        }
      ],
      "stateMutability": "view",
      "type": "function"
    },
    {
      "inputs": [],
      "name": "getTotalWaves",
      "outputs": [
        {
          "internalType": "uint256",
          "name": "",
          "type": "uint256"
        }
      ],
      "stateMutability": "view",
      "type": "function"
    },
    {
      "inputs": [
        {
          "internalType": "address",
          "name": "addr",
          "type": "address"
        }
      ],
      "name": "getWaver",
      "outputs": [
        {
          "components": [
            {
              "internalType": "address",
              "name": "addr",
              "type": "address"
            },
            {
              "internalType": "uint256",
              "name": "count",
              "type": "uint256"
            }
          ],
          "internalType": "struct Guest",
          "name": "",
          "type": "tuple"
        }
      ],
      "stateMutability": "view",
      "type": "function"
    },
    {
      "inputs": [],
      "name": "getWavers",
      "outputs": [],
      "stateMutability": "view",
      "type": "function"
    },
    {
      "inputs": [
        {
          "internalType": "string",
          "name": "_message",
          "type": "string"
        }
      ],
      "name": "wave",
      "outputs": [],
      "stateMutability": "nonpayable",
      "type": "function"
    }
  ],
  "bytecode": "0x6080604052620000336040518060600160405280602d815260200162001a08602d91396200003960201b620009a01760201c565b620001c3565b620000d9816040516024016200005091906200019f565b6040516020818303038152906040527f41304fac000000000000000000000000000000000000000000000000000000007bffffffffffffffffffffffffffffffffffffffffffffffffffffffff19166020820180517bffffffffffffffffffffffffffffffffffffffffffffffffffffffff8381831617835250505050620000dc60201b60201c565b50565b60008151905060006a636f6e736f6c652e6c6f679050602083016000808483855afa5050505050565b600081519050919050565b600082825260208201905092915050565b60005b838110156200014157808201518184015260208101905062000124565b60008484015250505050565b6000601f19601f8301169050919050565b60006200016b8262000105565b62000177818562000110565b93506200018981856020860162000121565b62000194816200014d565b840191505092915050565b60006020820190508181036000830152620001bb81846200015e565b905092915050565b61183580620001d36000396000f3fe608060405234801561001057600080fd5b50600436106100575760003560e01c8063449d46c01461005c5780635218b94814610078578063635f29f8146100a85780639a2cdc08146100b2578063bd43a908146100d0575b600080fd5b61007660048036038101906100719190610e62565b6100ee565b005b610092600480360381019061008d9190610f09565b61051e565b60405161009f9190610f8d565b60405180910390f35b6100b06106ce565b005b6100ba610804565b6040516100c79190610fb7565b60405180910390f35b6100d861084f565b6040516100e59190611163565b60405180910390f35b61012d6040518060400160405280600d81526020017f257320686173207761766564210000000000000000000000000000000000000081525033610a39565b600160008082825461013f91906111b4565b925050819055506000600360003373ffffffffffffffffffffffffffffffffffffffff1673ffffffffffffffffffffffffffffffffffffffff16815260200190815260200160002060010154036101fe573360046000600154815260200190815260200160002060006101000a81548173ffffffffffffffffffffffffffffffffffffffff021916908373ffffffffffffffffffffffffffffffffffffffff16021790555060018060008282546101f691906111b4565b925050819055505b600260405180606001604052803373ffffffffffffffffffffffffffffffffffffffff16815260200183815260200142815250908060018154018082558091505060019003906000526020600020906003020160009091909190915060008201518160000160006101000a81548173ffffffffffffffffffffffffffffffffffffffff021916908373ffffffffffffffffffffffffffffffffffffffff16021790555060208201518160010190816102b691906113f4565b5060408201518160020155505060405180604001604052803373ffffffffffffffffffffffffffffffffffffffff1681526020016001600360003373ffffffffffffffffffffffffffffffffffffffff1673ffffffffffffffffffffffffffffffffffffffff1681526020019081526020016000206001015461033991906111b4565b815250600360003373ffffffffffffffffffffffffffffffffffffffff1673ffffffffffffffffffffffffffffffffffffffff16815260200190815260200160002060008201518160000160006101000a81548173ffffffffffffffffffffffffffffffffffffffff021916908373ffffffffffffffffffffffffffffffffffffffff160217905550602082015181600101559050503373ffffffffffffffffffffffffffffffffffffffff167f5f7e16dc676677766a70e9c5628aa6c54ddb8b6e5188e2ae1e1f17f1ffbea7164283604051610417929190611510565b60405180910390a26000655af3107a400090504781111561046d576040517f08c379a0000000000000000000000000000000000000000000000000000000008152600401610464906115b2565b60405180910390fd5b60003373ffffffffffffffffffffffffffffffffffffffff168260405161049390611603565b60006040518083038185875af1925050503d80600081146104d0576040519150601f19603f3d011682016040523d82523d6000602084013e6104d5565b606091505b5050905080610519576040517f08c379a00000000000000000000000000000000000000000000000000000000081526004016105109061168a565b60405180910390fd5b505050565b610526610cd8565b6000600360008473ffffffffffffffffffffffffffffffffffffffff1673ffffffffffffffffffffffffffffffffffffffff1681526020019081526020016000206040518060400160405290816000820160009054906101000a900473ffffffffffffffffffffffffffffffffffffffff1673ffffffffffffffffffffffffffffffffffffffff1673ffffffffffffffffffffffffffffffffffffffff168152602001600182015481525050905061061c6040518060400160405280601881526020017f57617665722025732c2077617665642025732074696d6573000000000000000081525082600001518360200151610ad5565b600360008473ffffffffffffffffffffffffffffffffffffffff1673ffffffffffffffffffffffffffffffffffffffff1681526020019081526020016000206040518060400160405290816000820160009054906101000a900473ffffffffffffffffffffffffffffffffffffffff1673ffffffffffffffffffffffffffffffffffffffff1673ffffffffffffffffffffffffffffffffffffffff168152602001600182015481525050915050919050565b61070c6040518060400160405280601b81526020017f54686520666f6c6c6f77696e672070656f706c652077617665642100000000008152506109a0565b60005b600154811015610801576107ee6040518060400160405280600d81526020017f2573202e2025732077617665640000000000000000000000000000000000000081525082600360006004600087815260200190815260200160002060009054906101000a900473ffffffffffffffffffffffffffffffffffffffff1673ffffffffffffffffffffffffffffffffffffffff1673ffffffffffffffffffffffffffffffffffffffff16815260200190815260200160002060000160009054906101000a900473ffffffffffffffffffffffffffffffffffffffff16610b74565b80806107f9906116aa565b91505061070f565b50565b60006108476040518060400160405280601781526020017f5765206861766520256420746f74616c20776176657321000000000000000000815250600054610c13565b600054905090565b60606002805480602002602001604051908101604052809291908181526020016000905b8282101561099757838290600052602060002090600302016040518060600160405290816000820160009054906101000a900473ffffffffffffffffffffffffffffffffffffffff1673ffffffffffffffffffffffffffffffffffffffff1673ffffffffffffffffffffffffffffffffffffffff1681526020016001820180546108fc90611217565b80601f016020809104026020016040519081016040528092919081815260200182805461092890611217565b80156109755780601f1061094a57610100808354040283529160200191610975565b820191906000526020600020905b81548152906001019060200180831161095857829003601f168201915b5050505050815260200160028201548152505081526020019060010190610873565b50505050905090565b610a36816040516024016109b491906116f2565b6040516020818303038152906040527f41304fac000000000000000000000000000000000000000000000000000000007bffffffffffffffffffffffffffffffffffffffffffffffffffffffff19166020820180517bffffffffffffffffffffffffffffffffffffffffffffffffffffffff8381831617835250505050610caf565b50565b610ad18282604051602401610a4f929190611723565b6040516020818303038152906040527f319af333000000000000000000000000000000000000000000000000000000007bffffffffffffffffffffffffffffffffffffffffffffffffffffffff19166020820180517bffffffffffffffffffffffffffffffffffffffffffffffffffffffff8381831617835250505050610caf565b5050565b610b6f838383604051602401610aed93929190611753565b6040516020818303038152906040527f0d26b925000000000000000000000000000000000000000000000000000000007bffffffffffffffffffffffffffffffffffffffffffffffffffffffff19166020820180517bffffffffffffffffffffffffffffffffffffffffffffffffffffffff8381831617835250505050610caf565b505050565b610c0e838383604051602401610b8c93929190611791565b6040516020818303038152906040527f1c7ec448000000000000000000000000000000000000000000000000000000007bffffffffffffffffffffffffffffffffffffffffffffffffffffffff19166020820180517bffffffffffffffffffffffffffffffffffffffffffffffffffffffff8381831617835250505050610caf565b505050565b610cab8282604051602401610c299291906117cf565b6040516020818303038152906040527fb60e72cc000000000000000000000000000000000000000000000000000000007bffffffffffffffffffffffffffffffffffffffffffffffffffffffff19166020820180517bffffffffffffffffffffffffffffffffffffffffffffffffffffffff8381831617835250505050610caf565b5050565b60008151905060006a636f6e736f6c652e6c6f679050602083016000808483855afa5050505050565b6040518060400160405280600073ffffffffffffffffffffffffffffffffffffffff168152602001600081525090565b6000604051905090565b600080fd5b600080fd5b600080fd5b600080fd5b6000601f19601f8301169050919050565b7f4e487b7100000000000000000000000000000000000000000000000000000000600052604160045260246000fd5b610d6f82610d26565b810181811067ffffffffffffffff82111715610d8e57610d8d610d37565b5b80604052505050565b6000610da1610d08565b9050610dad8282610d66565b919050565b600067ffffffffffffffff821115610dcd57610dcc610d37565b5b610dd682610d26565b9050602081019050919050565b82818337600083830152505050565b6000610e05610e0084610db2565b610d97565b905082815260208101848484011115610e2157610e20610d21565b5b610e2c848285610de3565b509392505050565b600082601f830112610e4957610e48610d1c565b5b8135610e59848260208601610df2565b91505092915050565b600060208284031215610e7857610e77610d12565b5b600082013567ffffffffffffffff811115610e9657610e95610d17565b5b610ea284828501610e34565b91505092915050565b600073ffffffffffffffffffffffffffffffffffffffff82169050919050565b6000610ed682610eab565b9050919050565b610ee681610ecb565b8114610ef157600080fd5b50565b600081359050610f0381610edd565b92915050565b600060208284031215610f1f57610f1e610d12565b5b6000610f2d84828501610ef4565b91505092915050565b610f3f81610ecb565b82525050565b6000819050919050565b610f5881610f45565b82525050565b604082016000820151610f746000850182610f36565b506020820151610f876020850182610f4f565b50505050565b6000604082019050610fa26000830184610f5e565b92915050565b610fb181610f45565b82525050565b6000602082019050610fcc6000830184610fa8565b92915050565b600081519050919050565b600082825260208201905092915050565b6000819050602082019050919050565b600081519050919050565b600082825260208201905092915050565b60005b8381101561103857808201518184015260208101905061101d565b60008484015250505050565b600061104f82610ffe565b6110598185611009565b935061106981856020860161101a565b61107281610d26565b840191505092915050565b60006060830160008301516110956000860182610f36565b50602083015184820360208601526110ad8282611044565b91505060408301516110c26040860182610f4f565b508091505092915050565b60006110d9838361107d565b905092915050565b6000602082019050919050565b60006110f982610fd2565b6111038185610fdd565b93508360208202850161111585610fee565b8060005b85811015611151578484038952815161113285826110cd565b945061113d836110e1565b925060208a01995050600181019050611119565b50829750879550505050505092915050565b6000602082019050818103600083015261117d81846110ee565b905092915050565b7f4e487b7100000000000000000000000000000000000000000000000000000000600052601160045260246000fd5b60006111bf82610f45565b91506111ca83610f45565b92508282019050808211156111e2576111e1611185565b5b92915050565b7f4e487b7100000000000000000000000000000000000000000000000000000000600052602260045260246000fd5b6000600282049050600182168061122f57607f821691505b602082108103611242576112416111e8565b5b50919050565b60008190508160005260206000209050919050565b60006020601f8301049050919050565b600082821b905092915050565b6000600883026112aa7fffffffffffffffffffffffffffffffffffffffffffffffffffffffffffffffff8261126d565b6112b4868361126d565b95508019841693508086168417925050509392505050565b6000819050919050565b60006112f16112ec6112e784610f45565b6112cc565b610f45565b9050919050565b6000819050919050565b61130b836112d6565b61131f611317826112f8565b84845461127a565b825550505050565b600090565b611334611327565b61133f818484611302565b505050565b5b818110156113635761135860008261132c565b600181019050611345565b5050565b601f8211156113a85761137981611248565b6113828461125d565b81016020851015611391578190505b6113a561139d8561125d565b830182611344565b50505b505050565b600082821c905092915050565b60006113cb600019846008026113ad565b1980831691505092915050565b60006113e483836113ba565b9150826002028217905092915050565b6113fd82610ffe565b67ffffffffffffffff81111561141657611415610d37565b5b6114208254611217565b61142b828285611367565b600060209050601f83116001811461145e576000841561144c578287015190505b61145685826113d8565b8655506114be565b601f19841661146c86611248565b60005b828110156114945784890151825560018201915060208501945060208101905061146f565b868310156114b157848901516114ad601f8916826113ba565b8355505b6001600288020188555050505b505050505050565b600082825260208201905092915050565b60006114e282610ffe565b6114ec81856114c6565b93506114fc81856020860161101a565b61150581610d26565b840191505092915050565b60006040820190506115256000830185610fa8565b818103602083015261153781846114d7565b90509392505050565b7f547279696e6720746f207769746864726177206d6f7265206d6f6e657920746860008201527f616e2074686520636f6e7472616374206861732e000000000000000000000000602082015250565b600061159c6034836114c6565b91506115a782611540565b604082019050919050565b600060208201905081810360008301526115cb8161158f565b9050919050565b600081905092915050565b50565b60006115ed6000836115d2565b91506115f8826115dd565b600082019050919050565b600061160e826115e0565b9150819050919050565b7f4661696c656420746f207769746864726177206d6f6e65792066726f6d20636f60008201527f6e74726163742e00000000000000000000000000000000000000000000000000602082015250565b60006116746027836114c6565b915061167f82611618565b604082019050919050565b600060208201905081810360008301526116a381611667565b9050919050565b60006116b582610f45565b91507fffffffffffffffffffffffffffffffffffffffffffffffffffffffffffffffff82036116e7576116e6611185565b5b600182019050919050565b6000602082019050818103600083015261170c81846114d7565b905092915050565b61171d81610ecb565b82525050565b6000604082019050818103600083015261173d81856114d7565b905061174c6020830184611714565b9392505050565b6000606082019050818103600083015261176d81866114d7565b905061177c6020830185611714565b6117896040830184610fa8565b949350505050565b600060608201905081810360008301526117ab81866114d7565b90506117ba6020830185610fa8565b6117c76040830184611714565b949350505050565b600060408201905081810360008301526117e981856114d7565b90506117f86020830184610fa8565b939250505056fea26469706673582212202b4ff83770596a9fd79df49e109d4e2da46a8f048cdbe89f29a301548518893564736f6c63430008110033517565206d6972617320626f626f3f20517565206d6972617320626f62613f20416e646170616c6c61626f626f",
  "linkReferences": {},
  "deployedLinkReferences": {}
}